:03000000020016E5
:0300030002008078
:0300130002009652
:1000160075A8EF75890175080075090075812002BC
:100026000028758120E50890006093F59023C0E0D4
:1000360012003ED0E0020031E50990007093F50F02
:1000460012004DD50FFA22750E64750CF9750DF870
:0A005600D50CFDD50DFDD50EF122ED
:10006000FEFCF8F0E0C080FAEAAAE4A49911B3BD5E
:10007000020406080A0C0E10121416181A1C1E2070
:10008000C0D0C0E0E50864FFF59012004D30B41C0C
:1000900030B52B020102C0D0C0E0E50964FFF59045
:1000A00012004D30B42D30B546020102C3E508946C
:1000B0000F6006E508040200CE74000200CEC0E026
:1000C000C3E5086004140200CE740F0200CEF508E8
:1000D000020102C3E509940F6006E509040200FD70
:1000E000C2B7750A0A750B0AD28C74000200FDC3F0
:1000F000E5096004140200FD740F0200FDF5090219
:100100000102D0E0D0D0900028E582C0E0E583C0B5
:10011000E032758AF6758CD8150AE50A6001321549
:0E0120000B750A0AE50B600132D2B7C28C32B1
:00000001FF
