:0300000002001EDD
:030003000200A652
:030013000200F4F4
:03000B0002014BA4
:03001B0002018D52
:10001E0075A88F75B80A7589117538007539007510
:10002E00814012006E020036758140E538900086E0
:10003E0093F59023C0E012004CD0E002003FE5396A
:10004E0090009693F53312005BD533FA2275326425
:10005E007530F97531F8D530FDD531FDD532F12237
:10006E0075340A7535C8753601D28E2275340A7507
:08007E0035FF75362DD28E22EC
:10008600FEFCF8F0E0C080FAEAAAE4A49911B3BD38
:10009600020406080A0C0E10121416181A1C1E204A
:1000A60012006EE53864FFF59012005B30B406303E
:1000B600B51802013FC3E538940F6006E53804021F
:1000C60000E11200E674000200E1C3E538600414A2
:1000D6000200E11200E6740F0200E1F53802013F6A
:1000E60075080A750905750F03C2B7D28C2212006E
:1000F6006EE53964FFF59012005B30B40630B51832
:1001060002013FC3E539940F6006E5390402012F69
:10011600120134740002012FC3E539600414020190
:100126002F120134740F02012FF53902013F7508B1
:100136000A75090AC2B7D28C22900036E582C0E061
:10014600E583C0E032758AF6758CD81508E5086037
:100156000132150975080AE509600132C3E50F94F5
:1001660003600AC3E50F9401600C020185D2B775DE
:100176000905750F0132C2B7750905750F0032758D
:100186000F00D2B7C28C32758BF6758DD81534E553
:100196003460013275340A1535E53560013275353E
:0E01A600011536E53660013212007A0200BB08
:00000001FF
