:03000000020003F8
:0F00030075813F7509027508001201CA020003DA
:10001200C009750904C2B712031ED2B712031EC269
:10002200B712031ED2B7D00922C009750908C2B798
:1000320012031ED2B712031EC2B712031ED2B7D0CA
:02004200092291
:10004400C3E50870067508011201EEE50894017015
:1000540006750802120212E5089402700675080378
:10006400120228E5089403700675080412023EE59E
:100074000894047006750805120254E50894057086
:100084000675080612026AE50894067006750807E4
:10009400120280E50894077006750808120296E5B6
:1000A40008940870067508091202A7E508940970F7
:1000B4000675080A1202B8E508940A700675080B5A
:1000C4001202C9E508940B700675080C1202DAE5F1
:1000D40008940C700675080D1202EBE508940D7077
:1000E4000675080E1202FCE508940E700675080FDA
:1000F40012030D7508001200121201CAC3E508703C
:100104000975080F12001212030DE508940FC3704D
:100114000675080E1202FCE508940EC370067508F5
:100124000D1202EBE508940DC3700675080C12025B
:10013400DAE508940CC3700675080B1202C9E508C9
:10014400940BC3700675080A1202B8E508940AC332
:1001540070067508091202A7E5089409C3700675AC
:100164000808120296E5089408C370067508071279
:100174000280E5089407C3700675080612026AE552
:10018400089406C37006750805120254E508940520
:10019400C3700675080412023EE5089404C3700691
:1001A400750803120228E5089403C3700675080253
:1001B400120212E5089402C370067508011201EEDA
:0601C4007508001201CADB
:1001CA0075813F7BFF79087A01EB8AF0C395F0F5D8
:1001DA0090EA75F002A4FA12031E120331120343C5
:1001EA00D9E780DC75813F7BFF79087A80EB8AF05A
:1001FA00C395F0F590EA75F00284FA12031E120311
:10020A0031120343D9E780DC75813F7590FF74662C
:10021A00F4F59012031E12033112034380F2758122
:10022A003F7590FF74CCF4F59012031E120331123D
:10023A00034380F275813F7590FF74AAF4F590121A
:10024A00031E12033112034380F275813F7590FF3A
:10025A007469C4F59012031E12033112034380F22B
:10026A0075813F7590FF745AC4F59012031E1203EC
:10027A003112034380F275813F7590FF749FC4F574
:10028A009012031E12033112034380F275813F75E7
:10029A0090FF12031E12033112034380F575813F4A
:1002AA007590FF12031E12033112034380F5758104
:1002BA003F7590FF12031E12033112034380F57536
:1002CA00813F7590FF12031E12033112034380F51A
:1002DA0075813F7590FF12031E120331120343808A
:1002EA00F575813F7590FF12031E12033112034305
:1002FA0080F575813F7590FF12031E1203311203B8
:10030A0043808F75813F7590FF12031E12033112CD
:04031A00034380F524
:10031E00750A00750B0085090CD50AFDD50BFAD5AB
:03032E000CF722A7
:1003310030B40530B507801C120356801712036ACA
:10034100801230B20530B307800A120044800512D2
:05035100010080002204
:10035600C3E50994206005E50902036512002B2414
:1003660002F50922C3E5099402C370057420120040
:040376002BF5092238
:00000001FF
